:10000000020168021803FFFFFFFFFF02180BFFFF4A
:10001000FFFFFF021813FFFFFFFFFF02181BFFFF88
:10002000FFFFFF021823FFFFFFFFFF02182BFFFF58
:10003000FFFFFF020AC6FFFFFFFFFF02183BFFFFA3
:10004000FFFFFF021843FFFFFFFFFF02184BFFFFF8
:10005000FFFFFF021853FFFFFFFFFF02185BFFFFC8
:10006000FFFFFF021863FFFFFFFFFF020B67FFFFA9
:10007000FFFFFF021873FFFFFFFFFF02187BFFFF68
:10008000FFFFFF021883FFFFFFFFFF02188BFFFF38
:10009000FFFFFF12010002000000205104A21675AC
:1000A0002801020301090212000101008032090443
:1000B000000000FFFFFF000403090424035400654F
:1000C00000780061007300200049006E0073007426
:1000D00000720075006D0065006E007400730018FA
:1000E0000343004300200044006500620075006780
:1000F00000670065007200120330003000300030ED
:10010000003200380037003500AE0000000000006B
:1001100080FB120171B90003020162E479107804D6
:10012000B800028004F709D8FCE490F0027819794D
:10013000018002F0A3D8FCD9FA90F000AA82AB8328
:100140009014B1780179018015E493A3AC82AD835A
:100150008A828B83F0A3AA82AB838C828D83D8E9B9
:10016000D9E712030212010D75D0007581810201D9
:100170001279012243AE0322BB0102E722C082C0F2
:100180008389828A83BB0003E08002E493D083D01A
:100190008222BB000EC082C0838A838982F0D08312
:1001A000D08222BB0101F722600C08C6C313C61817
:1001B000C613C6D5E0F422700422600D18C6C333FE
:1001C000C608C633C6D5E0F41822E473D083D082C3
:1001D000CEC0E0EFC0E0C0207808E608C0E0DEFA5C
:1001E000E473C0D074072FD0D0F8D0E0F618DFFA4F
:1001F000D020D0E0FFD0E0FE22C8C0E0E9C0E0A9F6
:10020000811919E583C7F58319E582C7F582EAC02C
:10021000E0EBC0E0ECC0E0EDC0E0EEC0E0EFC0E03D
:10022000C0D0C0F0C0207908E709C0E0D8FAE47374
:1002300074072FF8D0E0F618DFFAD020D0F0D0D035
:10024000D0E0FFD0E0FED0E0FDD0E0FCD0E0FBD07D
:10025000E0FAD0E0F9D0E0F8D083D082D0E0327973
:1002600003D083D082E6C0E008D9FAE473D083D00B
:1002700082C5F0E493A3C5F0C395F0F5F0E493A331
:10028000C395F04005E5F0048001E475F002A42573
:1002900082F582E5F03583F583E493A3C0E0E4932F
:1002A000C0E022D083D082CCC0E0E493A3600612E9
:1002B00002CD1470FAE493A360061202EC1470FAF3
:1002C000D0E0FCE493A3C0E0E493C0E022C0E0E40B
:1002D00093A3D39C5010E493A3C39C400AD0E0D0D6
:1002E000E0D0E00202C0A3A3A3D0E022C0E0E493E8
:1002F000A36C7009D0E0D0E0D0E00202C0A3A3D08C
:10030000E02212041553F4BF53FEBF43F6407E00B3
:10031000A29640030E800B1204CAE964027003E542
:1003200055FE75550075540075510075520075578E
:100330001A755806755905755A06755B69755C110D
:10034000755DD2755E11EE600575530080239018BF
:1003500093E49364E17016901894E493648C700DA8
:10036000901895E493646470047A0180027A008A9C
:1003700053754793754800754909754A01754B09CE
:10038000754C01754D09754E01754F097550011277
:1003900005DF7A177B00120A81755614EE7004E5AA
:1003A00053702353F4FED29043FE011204757A3247
:1003B0007B0012049EEE60077AC27B0112049E63EA
:1003C000A008E5A080E8D2A475540112180022C04C
:1003D00008530880E5C6A2E7E50892E7F50874012E
:1003E00069701753BEFBE5BEA2E550FA7449450893
:1003F000FA8AC6E5C66A70FB8015E9701553BEFB24
:10040000E5BEA2E650FA8508C6E5C6650870FA435F
:10041000BE04D0082212047B53F5EFC2A443FF10A0
:1004200053F5F7C2A343FF0812046C53F4F7D293B9
:1004300043FE0853F3FBD28243FD0453F3FDD28104
:1004400043FD0253F4BFC29643FE4053F4FBC292F5
:1004500043FE0453F47F53FE7F43F68053F4FD5371
:10046000FEFD43F60253F1FD43F1012253F3FED2A8
:100470008043FD0122D2AF22C2AF2279001203CF06
:1004800053C6F8E5C622800C00000000EA24FF1ADB
:10049000EB34FFFBC3EA9402EB940050EB22EEC076
:1004A000E0EFC0E0EAFEEBFF80077AE87B0312048E
:1004B00086EEF8EFF974FF281E74FF39FFE870012B
:1004C000E970E7D0E0FFD0E0FE22741855BE1313A8
:1004D00013541F12026D0101DE04E104E4047900EB
:1004E00022790122790222EEC0E0EAFE7A007B0046
:1004F0008015851082851183E0FC18E62CFC08E647
:100500003400FD8C108D11E54965107004E54A65D5
:1005100011602F7810E62401F58208E63400F58397
:10052000E0697017AA10AB118A828B83E0FCEA2C79
:10053000FCEB3400FD8C108D118007E06E70B3EE83
:1005400060B0D0E0FE228547108548117A0079011D
:100550001204E72274021201CCE9FEEAFF8547107B
:10056000854811800D8A828B83A3A3A3A3A3E06E89
:1005700060147A0079021204E7EA7001EB6007EE7A
:1005800070E3EF1F70EC7F020201E274021201CCF3
:10059000EAFEEBFF7A001205547A0279041204E7AE
:1005A000EA7001EB60158A828B83A3A3E06E70E989
:1005B0008A828B83A3A3A3E06F70DE80C9EEC0E0C4
:1005C000C008C009E9FE8547108548117A00790303
:1005D0001204E7EE1E70F5D009D008D0E0FE227AB2
:1005E0000079011205548A828B83A3A3A3A3A3A33A
:1005F000A3E0A2E6500575410180037541007540F6
:100600000043BE8022752E02752F007535007903D8
:1006100012084F7512007513002274041201CC9059
:10062000DE0EE0FFE4F090DE11E0FEA2E4501A746A
:1006300080F0753507E5127002E5136009851282B6
:100640008513831201CA753500EEA2E2500AE490C8
:10065000DE11F0F5350206DAE535FA74026A7065E6
:1006600090DE16E0F50A782912025FA90A7A207B4B
:10067000DE12086C158115811581850A081208366D
:10068000A929AA2AAB2BE9250A120843E52C7002F6
:10069000E52D60047A4080027A48EA90DE11F0E5A8
:1006A0002C7002E52D7014E5127002E513600985C7
:1006B00012828513831201CA753500EF90DE0EF0A9
:1006C0007F040201E274066A700985128285138331
:1006D0001201CAE53560030207C9EEA2E050DC75DD
:1006E0000821750900750A01780812025F79087AF5
:1006F000207BDE12086C158115811581751200753D
:10070000130074E055211202A30006001F0720A465
:1007100007408E07805D07A0AF07C099075807E51F
:10072000221202A30006014407033F07053A070708
:1007300053070949070B4E075807120D28807912F5
:100740000D1C8074120D10806F121034806A12110B
:10075000048065120A7880607535048061E5221294
:1007600002A30005007507067A07087F070A8407B9
:100770000C89075807120B8B803E120D69803912C5
:10078000100380341210D7802F120A7C802A751231
:10079000CB7513081208CB801F751215751309123B
:1007A00009158014751257751309120957800975B8
:1007B00012907513091209907404653570047A60FB
:1007C00080027A40EA90DE11F0E535FA74016A7031
:1007D000517E02A82CA92DC3E89420E9940050076B
:1007E000E8F50A7E0A8003750A20782912025FA9BB
:1007F0000A7A207BDE12088F158115811581850A02
:1008000008A929AA2AAB2BE92508120843120836A1
:10081000EE90DE11F0E50AC3942040030206BB020D
:1008200006A774056A60030206BB851282851383DE
:100830001201CA0206BB782CC3E69508F608E694B6
:1008400000F622F9EA3400FA89298A2A8B2B227AC7
:1008500000743612086240F97A00743B1208624054
:10086000F9222AF8E9F60AEAC3940522EEC0E0EF7D
:10087000C0E08A828B83E9FFE5811208B86009E055
:100880001201921208AD70F7D0E0FFD0E0FE22EE28
:10089000C0E0EFC0E08A828B83E9FFE5811208B8EF
:1008A0006009120178F01208AD70F780DBE92401CD
:1008B00009EA3400FA1FEF2224FAF8E6FC08E6FD04
:1008C00008E6FEECF9EDFAEEFBEF22E52212026DEE
:1008D000C103E808DC08E808E008E4081213702205
:1008E00012144C2212146522E5536025E554602150
:1008F000901896E493C0E0740193F583D082A3A38B
:10090000A3A3A3A31209827002E58360041201CAA3
:100910002275350422E52212026DC0022C09240939
:100920002C0928091212142212140422E553602300
:10093000E554601F901896E493C0E0740193F5832A
:10094000D082A3A3A3A31209827002E583600412DC
:1009500001CA2275350422E5536018E554601490ED
:100960001896E493240A1209777002E58360041252
:1009700001CA2275350422F8A3E4933400F9888271
:100980008983E493F8740193F988828983E582224C
:10099000E5536027E5546023901896E493C0E07413
:1009A0000193F583D082A3A3A3A3A3A3A3A31209B6
:1009B000827002E58360041201CA2275350422E5C3
:1009C000536018E5546014901896E493240C1209AF
:1009D000777002E58360041201CA2275350422E5AE
:1009E000536018E5546014901896E493240E12098D
:1009F000777002E58360041201CA2275350422E58E
:100A000053602CE5546028901896E4932410FCA3BE
:100A1000E4933400FD8C828D83E493FC740193FD98
:100A20008C828D83E5827002E58360031201CA2205
:100A3000E5536017E5546013901896E4932412125E
:100A400009777002E58360031201CAA842E85404E2
:100A5000600FE556A2E25009784274FB56F6120682
:100A600005A842E85410600FE556A2E45009784208
:100A700074EF56F612061A227535042275350422D3
:100A800022C008C009439A02438C10754200754386
:100A9000007544008A458B46EA90DE0BF08A088B8D
:100AA00009740478081201A8E50890DE07F08A08A6
:100AB0008B09740978081201A8E508543E90DE09F4
:100AC000F0D009D00822C0E074021201F9E5BEA2FC
:100AD000E650FA90DE06E0FAA2E25035A845E8902A
:100AE000DE0BF0F508854609740478081201A8E5C4
:100AF0000890DE07F08545088546097409780812D4
:100B000001A8E508543E90DE09F090DE01E0D2E055
:100B1000F07842EA46F690DE02E0F50875090074C6
:100B20000478081201B77842E50846F608E5094658
:100B3000F690DE04E0F508750900740978081201E2
:100B4000B7784208E50946F6EAA2E0500375440189
:100B500074065A6003754400120A30E58BF4F58B75
:100B6000C2E87F02020230C0E074011201F9E5BE62
:100B7000A2E650FAE589FEA2E75005C2BD121202B4
:100B8000EEF4F589C2C57F01020230E5237002E56B
:100B9000247018A825A92674FF59FBE47001EB7096
:100BA0000A740265277002E528600475350422E5A1
:100BB0002112026D8002AB0BBE0BDF0BED0BE87058
:100BC000EAE541600478018002780090F000E8F0E6
:100BD000A3E4F0E540604F90F000E04402804374ED
:100BE00004652E70C690F000E4F0A38038E8547FCE
:100BF000FA7404652E70B4EAC3940650AE742E2ABB
:100C0000FAE85480600D74072AF8E66403700D78E2
:100C100001800B740C2AF8E6640360F3780090F00E
:100C200000E8F0A3E4F07404653560207C007DF0FA
:100C3000AA25741F5521F9120A80752900752AF01A
:100C4000752B00752C02752D0075350122E5277076
:100C500002E528700E7404652E600EE5257002E52D
:100C6000266006753504020D0D741F552112026DA4
:100C70000002630C7A0C810C960CAA23EA640160D2
:100C8000037900228940E960047905800279067AB7
:100C9000001209FF8077AA25EA547FFAAC23EC7092
:100CA000E0EAC3940650BCEA90DE0EF0742E2AFBF4
:100CB000AC25EC54806028E960047C1080027C4004
:100CC000EC90DE11F0E960047C0380027C00740784
:100CD0002BF8ECF6E960047908802A79078026E988
:100CE00060047C2080027C80EC90DE14F0E96004DB
:100CF0007C0380027C00740C2BF8ECF6E96004792C
:100D00000A800279091209FFE490DE0EF0790122CF
:100D10007900120C4DE970031209BF227901120CFF
:100D20004DE970031209DF22E5257002E526701AED
:100D3000E5277002E5287012A823A924748058FAC8
:100D400074FF59FBEA7001EB600475350422E890EA
:100D5000DE00F0600A7402652E700D752E03227499
:100D600003652E7003752E022274041201CCAA238F
:100D7000AB24EB12026D0102DA0D800D9A0DD30D3A
:100D80001205468A298B2A8E2BA929AA2A7B0012B2
:100D90000178F8882C8B2D020E7B79001205548A7D
:100DA000298B2A8E2BA929AA2A7B00E9240209096A
:100DB000EA3400FA120178FC1919AA2AE924030975
:100DC0000909EA3400FA120178F9ECF8882C892D27
:100DD000020E7BEAF91205BD80A98E298E2A8E2B80
:100DE0007C008072750900740378081201B7784B93
:100DF000E62508FA08E63509FBAE23AF248A828B84
:100E000083E0C0E0EFF8D0E068704AA3E06E704580
:100E1000AE25AF268A828B83A3A3E0C0E0EFF8D093
:100E2000E06870318A828B83A3A3A3E06E70268A68
:100E3000828B83A3A3A3A3E0F508A3E0850829F58B
:100E40002A752B008A828B83A3A3A3A3A3A3E0F517
:100E50002CA3E0F52D0C8C08794D784BE7C396F563
:100E60000A0809E796F50B7403780A1201A8C3E58E
:100E700008950AE4950B5003020DE4AC29AD2AAEA7
:100E80002BEC4D4E7005753504801A740465356081
:100E900014A827A928C3E8952CE9952D5004882C7F
:100EA000892D7535017F040201E274081201CC0519
:100EB000810581E58114F8EAF608EBF61886828B45
:100EC00083A3A3A3A3E06026AE4FAF508008EE2417
:100ED00004FEEF3400FF8E828F83E493FA74019353
:100EE000FBE58114F8E66A700308E66B70E07508AC
:100EF00000803C749090DE14F07410120FF87003B0
:100F00007509408E828F83A3A3A3E493550A6006DC
:100F1000E509D2E0F509E50990DE15F0EA90DE1367
:100F2000F0740C250FF87600E490DE0EF00508E56D
:100F30008114F88682088683A3A3A3A3E0FAE508B8
:100F4000C39A4003020FEF7A0079051204E78A0A78
:100F50008B0BAC0AAD0BEC7001ED60D1EC2402F808
:100F6000ED3400F9880C890D8882F583E0540FF583
:100F70000E90DE0EF07509008C828D83A3A3A3A3CF
:100F8000E02407F50AA3E03400F50B7403780A1295
:100F900001A8AA0A742E250EF50F750A01750B001B
:100FA000E50E780A1201B7EC2403F8ED3400F98558
:100FB0000C82850D83E0A2E74003020EF374489093
:100FC000DE11F07408120FF870037509408E828FDD
:100FD00083A3A3E493550A6006E509D2E0F509E589
:100FE0000990DE12F0EA90DE10F07407020F23156C
:100FF0008115817F080201E2F088828983E0540331
:10100000640122E5237002E5247012E5257002E5F3
:1010100026700A740165277002E52860047535049E
:101020002275292F752A00752B01752C01752D004D
:101030007535012274041201CC7402652E601BE523
:10104000257002E5267013E5277002E528700B78FD
:101050002308E6FBE47001EB600575350480757AC2
:101060000079011209FFA823E860587A00F91205F7
:10107000548A088B09AE08AF09EE7001EF603F7526
:101080002E04A823E8F52F7509008E828F83A3A371
:10109000A3A3E0FAE509C39A503374302509F50893
:1010A000F876007A0079041204E78A828B83A3A37E
:1010B000A3E0A8086670EC120EAA050980CC75356D
:1010C00004800AF52F752E03790312084F7A0079F0
:1010D000021209FF020EA57404652E701874816552
:1010E000217012E5237002E524700A7401652770EF
:1010F00002E528600475350422A825E82430F98922
:101100002902102474021201CC7404652E700E742E
:101110000165217008E5277002E528600575350432
:101120008042A823E8FBA825E8FAA92F12058B8A9C
:10113000088B09A808A909E8FEE9FFE87001E96041
:10114000DCAA2579031209FFA823E8C0E0A825E856
:101150002430F8D0E0F6EEFAEFFB120EAAAA2579B9
:10116000041209FF7F020201E2745390F002F0744E
:10117000BE90F003F074FC90F004F0744390F0051E
:10118000F074BE90F006F0740190F007F074759062
:10119000F008F0748790F009F0740190F00AF07490
:1011A000E590F00BF0744490F00CF0747090F00D3A
:1011B000F074F390F00EF0742290F00FF0D2BD9026
:1011C000F0107402F0A374F0F0758202F58312013E
:1011D000CA22E5407003790022C2AF1212027544A0
:1011E0000090DE01E0D2E2F07A0A7B0012049E90C9
:1011F000DE01E0C2E2F0C2BDC2C575897FD2AF791F
:101200000122E490F007F090F008F090F009F090DF
:10121000F00AF022E5257002E526600302133F790B
:10122000217A007B0189298A2A8B2B752C088A2D2B
:101230008B35AC51EC120192A952E9C0E0A929AA60
:101240002AAB2BE9240109EA3400FAD0E01201921A
:10125000E5536013901896E493C0E0740193F5830E
:10126000D082E493FA80027A00EAC0E0A929AA2A8F
:10127000AB2BE924020909EA3400FAD0E01201920A
:10128000E5536014901896E493C0E0740193F583DD
:10129000D082740193FA80027A00EAC0E0A929AAF8
:1012A0002AAB2BE92403090909EA3400FAD0E01239
:1012B0000192E5536015901896E493C0E074019391
:1012C000F583D082A3A3E493FA80027A00EAC0E017
:1012D000A929AA2AAB2BE92404F9EA3400FAD0E0C0
:1012E000120192E5536016901896E493C0E07401E1
:1012F00093F583D082A3A3740193FA80027A00EA63
:10130000C0E0A929AA2AAB2BE92405F9EA3400FA9E
:10131000D0E0120192E554C0E0A929AA2AAB2BE93A
:101320002406F9EA3400FAD0E0120192A929AA2A87
:10133000AB2BE92407F9EA3400FAE412019222E522
:1013400053602CE5546028901896E493C0E0740133
:1013500093F583D082A3A3A3A3E493F8740193F934
:1013600088828983E5827002E58360031201CA22C4
:10137000E535FA7026E554700AE5277004740465B3
:101380002860057535048003753502752C00752DB0
:1013900004752900752AFB752B002274026A70639C
:1013A00074FB90F012F0E490F013F074DF90F014FE
:1013B000F074AF90F015F0740490F016F0E490F033
:1013C00017F0741290F018F0744290F019F074F065
:1013D000F5D575D412120478E5AEA2E740FA43D6EB
:1013E00001A825E8C333F5AD75AC00740755C6F800
:1013F0007420B800028004C313D8FCF5AB1201744A
:1014000012047522C008C009E535703B85250885A2
:101410002609C3E5089420E50994004005753504C4
:101420008025E52770047404652860047A0480022E
:101430007A018A35740A78081201B7F52985092AD4
:10144000F52BF52C752D04D009D00822752C0075CC
:101450002D00E5277002E5286004753504227535F6
:101460000175540122E5357030120478744090DE25
:1014700011F07A0A7B0012049EC290C2A4AA23AB88
:1014800024EA7001EB600312049EA825E8F5557963
:10149000031214A112149A80FE2253C9FB43C908F7
:1014A00022740359C0E074FC55C9FAD0E04AF5C96A
:1014B00022FFFFFFFFFFFFFFFFFFFFFFFFFFFFFF19
:1014C000FFFFFFFFFFFFFFFFFFFFFFFFFFFFFFFF2C
:1014D000FFFFFFFFFFFFFFFFFFFFFFFFFFFFFFFF1C
:1014E000FFFFFFFFFFFFFFFFFFFFFFFFFFFFFFFF0C
:1014F000FFFFFFFFFFFFFFFFFFFFFFFFFFFFFFFFFC
:10180000021898FFFFFFFFFFFFFFFFFFFFFFFFFF33
:10181000FFFFFFFFFFFFFFFFFFFFFFFFFFFFFFFFD8
:10182000FFFFFFFFFFFFFFFFFFFFFFFFFFFFFFFFC8
:10183000FFFFFFFFFFFFFFFFFFFFFFFFFFFFFFFFB8
:10184000FFFFFF02288DFFFFFFFFFF022F0EFFFFAC
:10185000FFFFFFFFFFFFFFFFFFFFFF022F5FFFFF05
:10186000FFFFFF022FB0FFFFFFFFFF022DD0FFFFA2
:10187000FFFFFFFFFFFFFFFFFFFFFF022E31FFFF14
:10188000FFFFFFFFFFFFFFFFFFFFFFFFFFFFFFFF68
:10189000FFFFFFE18C64792075D00075819075148D
:1018A000207515F10218AC00000080FB121910B968
:1018B000000302190AE479167804B800028004F7DC
:1018C00009D8FCE4796F780DB800028004F709D8D4
:1018D000FCE490F120785979038002F0A3D8FCD978
:1018E000FA90F378AA82AB83901913781C7901805F
:1018F00015E493A3AC82AD838A828B83F0A3AA8282
:10190000AB838C828D83D8E9D9E71229311218A7CD
:101910007901220300000101000001010107FFFF1E
:10192000D2F2030000FA00000000FFFFFFFF740185
:1019300022C56C703BC56C33D2919297C29133D261
:10194000919297C29133D2919297C29133D2919250
:1019500097C29133D2919297C29133D2919297C20A
:101960009133D2919297C29133D2919297C29122A0
:10197000C56C7A0831DC31DC33D29131D7929731A2
:10198000D7C291DAEF22E56C7039D291C291A29759
:1019900033D291C291A29733D291C291A29733D2FE
:1019A00091C291A29733D291C291A29733D291C2A0
:1019B00091A29733D291C291A29733D291C291A2B0
:1019C0009733227A0831DC31DCD29131D731D7C25A
:1019D00091A29733DAEF220000000000000000001F
:1019E000000000000000000022FAE56AB40704EAE3
:1019F0005109222463056AF8EAF622E56A246305A0
:101A00006AF8E62290DE28E02290DE28F022D90A49
:101A1000D05FD0608C618D6261142253FE7FE56DD2
:101A20007002C296D2977A1030970EE56E6008EA7F
:101A3000C0E03186D0E0FADAEF002243FE80D29691
:101A400022312E7003C28122D281227B087A0012B9
:101A50002EA5312E7004D2818002C2817B087A00CB
:101A6000122EA522896C22896D22896E22755F1B38
:101A700075601ED296D292C291C29743FE8253F6EF
:101A8000FD22121A6D514B51417B087A00122EA58E
:101A9000E960065401603280057825E6602B31D775
:101AA000D29131D7C29131D7D29131D7C29131D7AA
:101AB000514B513BC06C756C0174553131E431317F
:101AC000511B3186513BD06C2231D7514B122BC167
:101AD00022E93131223186F922C2AF740490DE0E40
:101AE000F090DE14E030E03390DE16E493F9602BE2
:101AF000855F83856082AD62AC61E47343FE80D212
:101B000096E56B600790DE11E04401F0D910755F37
:101B10001B75601E90DE14E4F080C6D2AF22510423
:101B2000F56B536B0103F56A536A070303541E9068
:101B30001B33736175618F61AF6151618961A96107
:101B400063618361A361C1617D619D61BB61D76197
:101B5000F1510E51043131511B318631E931863159
:101B6000E941FC510E51043131510E5104313151D2
:101B70000E51043131510E5104313141FC510E519D
:101B8000043131510E51043131510E510431315172
:101B90000E51043131511B318631E941FC510E5156
:101BA000043131510E51043131510E510431315152
:101BB0000E51043131511B318641FC510E5104311B
:101BC00031510E51043131510E5104313131FB315B
:101BD00031511B318641FC510E51043131510E51AE
:101BE00004313131FB313131FB3131511B3186410F
:101BF000FC510E5104FD3131510E5104FC3131EDD7
:101C00005407FD4C70027D08EC60010D510E51042B
:101C10003131DCF8DDF6511B318641FCE066701095
:101C200008A3E066700A08A3E066700408A3E066F3
:101C300022BB0102E722C082C08389828A83BB0063
:101C400003E08002E493D083D08222BB000EC082E6
:101C5000C0838A838982F0D083D08222BB0101F7BE
:101C6000226016080808C6C313C618C613C618C6CD
:101C700013C618C613C6D5E0EA22E026F008A3E092
:101C800036F008A3E036F008A3E036F022E0F608CC
:101C9000A3E0F608A3E0F608A3E0F622E6F008A326
:101CA000E6F008A3E6F008A3E6F022CAC0E0E6F0FA
:101CB000A308DAFAD0E0FA22CAC0E0E0A3C582CCD9
:101CC000C582C583CDC583F0A3C582CCC582C5833B
:101CD000CDC583DAE6D0E0CA22C58224FDC582C51F
:101CE0008334FFC58322B90010BB0008E88AF08462
:101CF000F8AAF022E4FBC8FA22EB70227B10C8336A
:101D0000C8C933C9335007C39AC3DBF280069A505F
:101D1000012ADBEAC833F4C8C933F4C9FA2275F0E2
:101D200008E4C833C8C933C933C99AC99B5004C928
:101D30002AC93BD5F0ECFBC833F4C8E4C9FA2270D9
:101D40000422600D18C6C333C608C633C6D5E0F4F6
:101D50001822251410AF08F514400215158008F557
:101D60001440021515D2AF22C0D0251410AF08F5CB
:101D700014500205158008F51450020515D2AFD095
:101D8000D0222514F58210AF08F5144002151580F5
:101D900008F51440021515D2AF851583222514F5D8
:101DA00082E43515F58322E4732514C582C0E0E58D
:101DB0001534FFC583C0E0E514C3958224F9F8E427
:101DC000C5A8858315858214C5A8E8CEF0A3E520B3
:101DD000F0A37808E608F0A3DEFAEFF0A3E581248B
:101DE000FBF8E608F0A3E608F0A30808E608F0A36D
:101DF000E608F0A315811581D0E0FED0E0F815814A
:101E00001581E8C0E0EEC0E022851583851482E0EC
:101E1000A3FEE0A3F5207808E0A3F608DFFAE0A32C
:101E2000FFE0A3C0E0E0A3C0E0E0A3C0E0E0A3C007
:101E3000E0E4C5A8858214858315C5A8D083D08227
:101E400022C0D02514C582C0E0E51534FFC583C08B
:101E5000E0E514C3958224F310AF088583158582CD
:101E6000148008858315858214D2AFC8F0A3E9F0E9
:101E7000A3EAF0A3EBF0A37908E709F0A3D8FAEC02
:101E8000F0A3EDF0A3EEF0A3EFF0A3D0E0F0A3D029
:101E9000E0F0A3D0E0F0A3E520F0A3E5F0F0A3226A
:101EA000851583851482E0C0E0A3E0F9A3E0FAA3DE
:101EB000E0FBA37808E0F608A3DFFAE0FCA3E0FD6E
:101EC000A3E0FEA3E0FFA3E0C0E0A3E0C0E0A3E046
:101ED000F5D0A3E0F520A3E0A3F5F0E4C5A8858341
:101EE00015858214C5A8D082D083D0E0F8D0E03226
:101EF0007403800474028000C0E0F404121D82D0D8
:101F0000E0121CAB22CCC0E0EDC0E0E514C39CCCD9
:101F1000AD1550011D10AF068C148D1580068C1464
:101F20008D15D2AF121CB8D0E0FDD0E0FC22D083DA
:101F3000D082C5F0E493A3C5F0C395F0F5F0E49327
:101F4000A3C395F04005E5F0048001E475F002A418
:101F50002582F582E5F03583F583E493A3C0E0E4C0
:101F600093C0E022D083D082CCC0E0E493A360068B
:101F7000121F8E1470FAE493A36006121FAD147042
:101F8000FAD0E0FCE493A3C0E0E493C0E022C0E018
:101F9000E493A3D39C5010E493A3C39C400AD0E0E5
:101FA000D0E0D0E0021F81A3A3A3D0E022C0E0E4F0
:101FB00093A36C7009D0E0D0E0D0E0021F81A3A30E
:101FC000D0E022D083D082ECC0E0EDC0E0E493A367
:101FD000FCE493A3FDED4C600D12200FEC24FFFCFC
:101FE000ED34FFFD80EFE493A3FCE493A3FDED4CFF
:101FF000600D12204EEC24FFFCED34FFFD80EFD08D
:10200000E0FDD0E0FCE493A3C0E0E493C0E022C094
:10201000E0C3E49396087401939618400FE4936626
:10202000700808740193661870007019A3A3C3E4C4
:102030009396087401939618A3A3400DD0E0D0E0C6
:10204000D0E0021FFFA3A3A3A3A3A3D0E022C0E07C
:10205000C0F088F0E4936670080874019366187005
:1020600000A8F0A3A3700BD0F0D0E0D0E0D0E00245
:102070001FFFA3A3D0F0D0E022CC053400372A7C88
:102080002A102B142B182B1C2B202B432B74F712EC
:102090001DA974FF121D52E4851482851583F0F08A
:1020A000FA8A08E5082420F582E434F1F583E4F0A7
:1020B0000AEAC3940840EA1222E9EA7001EB704987
:1020C0001223CDEA7001EB704012245DEA7001EB3F
:1020D000703712220BEA7001EB702E122BA0121A2D
:1020E0006D7901121A647901121A67122113EA70CC
:1020F00001EB70157900121A67122113EA7001EBD7
:102100007007122BC17A007B007401121D687F02D8
:10211000021E09C082C08374FE121D527901121A78
:102120006A7981121A827A327B00122EA57968129E
:102130001AD1121A1B121AD5E9851482851583F05B
:10214000121AD57401121D9DE9F0121A3B79001282
:102150001A6A851482851583E0121F64014142D9F1
:10216000210E018E2111942134C72143E22144EB39
:102170002145F42181982185A22189A8218DD02192
:10218000919E2195BE21A5AC21B5B521FD217A10E6
:102190007B11806D7A1180F87A107B2580637A112B
:1021A00080F87A307B2480597A3180F87901121ACC
:1021B0006A7A3080E57901121A6A7A3180DC790115
:1021C000121A6A7A3380D37901121A6A7A3480CA71
:1021D0007901121A6A7A4080C17901121A6A7A4129
:1021E00080B87901121A6A7A4380AF7901121A6AAB
:1021F0007A4480A67901121A6A7A45809D7A007B1A
:10220000007402121D68D083D0822274F8121DA9B6
:1022100074FE121D521223B8C2827EC8A285500BD2
:102220007A057B00122EA51EEE70F1C2F975F9F049
:10223000A2F950FCC2F975F900A2F950FCE5F9C009
:10224000E07401121D9DD0E0F0C2F975F9F1A2F918
:1022500050FCC2F975F900A2F950FCE5F985148229
:10226000851583F0D2827401121D9DE0121F640057
:1022700004007F2202CD2280DF2282E5228822858F
:102280001482851583E070077A007B00022453E0F6
:10229000C3940450067A007B1180F1E06405700459
:1022A0007A0280F3E0640470047A0180EAE0640753
:1022B00070047A0780E1E0640870047A0880D8E04E
:1022C000640970047A0980CF122BC180BB85148207
:1022D000851583E0C4135407F8745028FA80B87A3F
:1022E000007B2580A77A5080F874F8121DA974FE2F
:1022F000121D5274025580FF1223B8D2817A057BD9
:1023000000122EA5C281C2827EC8A285500B7A051A
:102310007B00122EA51EEE70F1C2F975F9EFA2F93D
:1023200050FCC2F975F98FA2F950FCC2F975F90099
:10233000A2F950FCE5F9C0E07401121D9DD0E01235
:102340002609A2F950FCE5F9851482851583F0D29F
:10235000827401121D9DE0121F6400091079232070
:102360009723219D2322A12323A523408F23488443
:1023700023588B235A9323A923851482851583E040
:102380006410702A7A207B110224537A2580F77A10
:102390002180F37A7580EF7A007B1280EB7A0180DE
:1023A000F87A0280F47A0380F0EF6008D2817A0034
:1023B0007B0080D4C28180F612244153F4FBC29288
:1023C00043FE0453F4FD53FEFD43F6022274F8125B
:1023D0001DA974FF121D5274025580FED28153F460
:1023E000BFD29643FE4053F47FD29743FE807A8853
:1023F0007B13122EA5C2817AD07B0712260175F9B4
:1024000010A2F950FCC2F975F940A2F950FCC2F9CA
:1024100075F900A2F950FCE5F9851482851583F061
:10242000D282E0648470067A207B258010122441D9
:10243000EE6004D2818002C2817A007B0074018048
:102440001453F4BFC29643FE4053F47F53FE7F43C0
:10245000F680227402121D687F01021E0974F712B1
:102460001DA974FD121D527401121D9DE4F0A3F00C
:1024700074025580851482851583F0D282D2817AC8
:10248000027B00122ECAC28153F3EFC28443FD10B7
:10249000C2827A647B00122EA5D28253F3EF53FDE1
:1024A000EF538FEF53F7DF43F310C282C2F975F990
:1024B000C0A2F950FCC2F975F904A2F950FCC2F9A6
:1024C00075F925A2F950FCC2F975F905A2F950FC7D
:1024D000C2F975F9B0A2F950FCC2F975F907A2F971
:1024E00050FC1225FB75F9DFA2F950FCC2F975F911
:1024F00002A2F950FCC2F975F900A2F950FCC2F928
:1025000075F9ACA2F950FC1225FB75F990A2F950AF
:10251000FCC2F975F91AA2F950FCC2F975F900A2CA
:10252000F950FCE5F9F97401121D9DE4F0A3E912DC
:102530002609A2F950FCE5F9F5087401121D9DE089
:102540004508F0A3E0F07401121D9DE064057004DD
:10255000A3E064256018D282851482851583E0602B
:1025600004D2818002C2817A007B000225F6C2F982
:1025700075F900A2F950FCE5F990F121122609A2A3
:10258000F950FCE5F990F120F07A10C2F975F900E4
:10259000A2F950FCE5F91AEA70F1C2F975F900A246
:1025A000F950FCE5F990F125122609A2F950FCE555
:1025B000F990F124122609A2F950FCE5F990F123D3
:1025C000122609A2F950FCE5F990F122122609A27F
:1025D000F950FCE5F990F127122609A2F950FCE523
:1025E000F990F126F0D282D2817A147B00122EA5C6
:1025F000C2817A057B25740302210BD2827A327B59
:1026000000122EA5C282C2F922F0C2F975F9002289
:1026100074F7121DA9E5357038E5277002E52860CA
:1026200005753504802B53F3FBD28243FD04122B36
:102630004453F3FDD28143FD02122BC112208D8A37
:10264000518B5212561BE990F384F012291F7535F5
:102650000202210EE5357021C3E5279408E5289490
:1026600000500475350422752920752AF1752B0058
:10267000752C08752D007535012274F1121DA9E520
:1026800035FA7015752950752AF1752B0085272CA0
:1026900085282D75350202278274026A600302279D
:1026A00082AA23AB2474C05AF50874FF5BF509783D
:1026B00008121FC3000002000000C2260001C2264B
:1026C0008227EA5403F50DEA543C1313543FFE7F6E
:1026D00000A827A9287001E4700B850D08E895086B
:1026E000FEE99400FF880A890B7508507509F18589
:1026F0000D8285820EE87001E97003022782C28292
:10270000742065517004742565526014750CC8A25C
:1027100085500D7A057B00122EA5150CE50C70EF87
:10272000C3E50A950EF50AE50B9400F50BAA0DEA30
:10273000601A1AC2F9850882850983E0F5F9A38534
:102740008208858309A2F950FCEA70E6C3E50A9E77
:10275000F50AE50B9FF50BEEFA601A1AC2F9850827
:1027600082850983E0F5F9A3858208858309A2F9AA
:1027700050FCEA70E6D282E50A7002E50B600302C3
:1027800026FE7F08021E0974F3121DA9E5356003B9
:10279000022888AA23AB2474C05AF50874FF5BF59D
:1027A000097808121FC3000002000000B4270001CE
:1027B000B4277628EA5403F50CEA543C1313543F2B
:1027C000FE7F00A827A9287001E47004E8FEE9FF55
:1027D00088088909750A50750BF1E87001E9706580
:1027E000022876C2F9A924E9F5F9A2F950FCC2F948
:1027F000A926E9F5F9A2F950FCC2F9A825E8F5F9EE
:10280000A2F950FC7825E62401F608E63400F6C368
:10281000E5089EF508E5099FF509EEFA601D1AC264
:10282000F975F900A2F950FCE5F9850A82850B8358
:10283000F0A385820A85830BEA70E3D282E50870F3
:1028400002E5096031C28274206551700474256507
:10285000526014750DC8A285500D7A057B00122EAA
:10286000A5150DE50D70EFE50C121F2E01020428D1
:10287000F927EE27E327752950752AF1752B008576
:10288000272C85282D7535017F06021E09C2C0320E
:1028900074F6121DA97508D7750977750A8078082E
:1028A000121EF0742EC39493FC74F494F3FD799388
:1028B0007AF37B0012737E7403121D6875089F758E
:1028C0000900750A007808121EF07C027D00799FCD
:1028D0007AF37B0012737E7403121D687508F97811
:1028E00008121EF07C107D00790E7AF47B001273C2
:1028F0007E7403121D687F03021E09741069701E26
:102900007547937548F375492A754AF4754B2A75CE
:102910004CF4754D2A754EF4754F2A7550F422E526
:10292000517002E5527005D2A3C2A422D2A4C2A360
:1029300022D2A4122B4475510075520012208D8AA8
:10294000518B5212561BE990F384F012291FE55166
:102950007002E5527003122B6D1228907910122824
:10296000FB53F4FED29043FE01122E8F807C12584E
:10297000308011123733800C12710380077AFA7B92
:1029800000122EA590F384E0FA90F383E06A605A77
:10299000E0121F64000500B62904A72905AC29062A
:1029A000B12907AC29B9291256F5800D1240B38020
:1029B00008122B448003122BC190F384E0121F2EC7
:1029C00000072F2AD4290B2A2F2A2F2A182A1D2A3A
:1029D000272A222A122B6D122BA0121A6D7980122F
:1029E0001A8290F384E090F383F090F383E0121F57
:1029F0002E00077D29052A84297D297D296E2973CA
:102A00002978297329121AD902298453F3FBD28217
:102A100043FD04122B4480CA1256B080C51259F7E8
:102A200080C012336A80BB122BC112717E80B31238
:102A30002B6D122BC180ABC082C083E522121F64B4
:102A40000006C6602AC7562ACB5B2AD76F2AD965EB
:102A50002ADB6A2A742A1230F4801C122787801716
:102A60001255E380121232AA800D124182800812A0
:102A700026548003753504D083D08222C082C0835F
:102A8000E522121F64000CC5B72AC8AD2AC9C12AA5
:102A9000CAB22ACFDC2AD0FB2AD1002BD2052BD5F3
:102AA000E92AD6F62AD8D72ADABC2A0A2B122FE628
:102AB000805B12267A80561255FA80511231858039
:102AC0004CE53570487900121A8290F383E0640473
:102AD000703B122BA0803612317D8031E535702D90
:102AE000A823E8F9121A648024E5357020A823E8A9
:102AF000F9121A6A80171226108012125684800D5D
:102B000012569A800812566B8003753504022A7794
:102B10007535042275350422753504227535042275
:102B2000C082C083E9121F2E0109402B402B402B8D
:102B3000402B402B402B402B402B402B402B402B3D
:102B4000022A772253F3FED28043FD01C28043F371
:102B50002043F31043F308E5C6FA43FB8075F80001
:102B600074075A240F4420F5FC75FA5322D280537F
:102B7000F3DF53FDDF438F2053F3EF53FDEF438F1C
:102B80001053F3F753FDF7438F0853F3FB53FDFB4B
:102B9000438F0422D2817A0A7B00122ECAC281227C
:102BA00053F4BFD29643FE4053F4FBD29243FE044B
:102BB00053F47FC29743FE8053F4FDC29143FE025B
:102BC0002253F4FBC29243FE0453F4FD53FEFD4333
:102BD000F60253F4BFC29643FE4053F47F53FE7F88
:102BE00043F6802274F7121DA9EAF8EBF9A2AFE4CC
:102BF00092E0FAC2AF7409121D9DE0121F2E00016F
:102C0000662C062C502C740A121D9DE0C333FCE484
:102C100033FDEC2450F582ED34F2F583E8F0A3E9BE
:102C2000F0740A121D9DE0FC7409121D9DE0121F34
:102C30002E0001842C392C6F2C750801750900ECCD
:102C40007808121D3FE508F45589F589C2C580341E
:102C5000740A121D9DE0C333FCE433FDEC2460F5DF
:102C600082ED34F280B4EAA2E092AF79FF801C7565
:102C70000801750900EC7808121D3FE508F4558A33
:102C8000F58AC2EBEAA2E092AF79007F02021E0948
:102C900074F7121DA97409121D9DE0121F2E000168
:102CA000DB2CA62CBF2CD2BD740A121D9DE0C39450
:102CB000045007438C08790080D1438C1080F7437F
:102CC0009A10750801750900740A121D9DE07808B4
:102CD000121D3FE508458DF58D80DB79FF80D974A5
:102CE000F7121DA97409121D9DE0121F2E00012666
:102CF0002DF52C0C2D740A121D9DE0C39404500771
:102D0000538CF779008084538CEF80F77508017538
:102D10000900740A121D9DE07808121D3FE508F4B1
:102D2000558DF58D80DD79FF80DB74F7121DA97458
:102D300009121D9DE0121F2E00017B2D402D5F2DDD
:102D4000750801750900740A121D9DE07808121DAE
:102D50003FE508F45589F589C2C57900022C8B75C9
:102D60000801750900740A121D9DE07808121D3FC4
:102D7000E508F4558AF58AC2EB80DF79FF80DDC073
:102D800082C083E9121F2E0001CC2D8F2DB02D851E
:102D90001482851583E0121F2E0001CC2DA12DABCE
:102DA0002D438C017900D083D08222438C0280F4A1
:102DB000851482851583E0121F2E0001CC2DC22DB3
:102DC000C72D538CFE80DD538CFD80D879FF80D6D3
:102DD000C0E074EF121E41E589604F7508007E5017
:102DE0007FF2750A01750B00E508780A121D3FE5B0
:102DF0000AF509E5895509601F8E828F83E0F8A3E3
:102E0000E0F988828983E5827002E5836003121D00
:102E1000A7E509F45589F5890508EE2402EF340089
:102E20000E0EFFE508C3940840B8C2C57F04021E19
:102E3000A0C0E074EF121E41E58A604F7508007E65
:102E4000607FF2750A01750B00E508780A121D3FD4
:102E5000E50AF509E58A5509601F8E828F83E0F83F
:102E6000A3E0F988828983E5827002E5836003121A
:102E70001DA7E509F4558AF58A0508EE2402EF340A
:102E8000000E0EFFE508C3940840B8C2EB809DD247
:102E9000AF22E5A8C2AFA2E7E492E0FA7B0022EA03
:102EA000A2E092AF22EBC313FBEA13FAC3EA940247
:102EB000EB9400401400000000000000000000EA55
:102EC00024FFFAEB34FFFB80E32274F8121DA9EA19
:102ED000FEEBFFEE7001EF60157AE87B03122EA582
:102EE000EE24FF1EEF34FFFFEE7001EF70EB7F0169
:102EF000021E09C082C083E5A8FCC2AF90F270EA4E
:102F0000F0A3EBF0ECA2E792AFD083D08222C0E036
:102F1000C0D0E8C0E0E9C0E0EAC0E0EBC0E0ECC04F
:102F2000E0EDC0E0C082C083C0F090F270E07002BB
:102F3000A3E0600E90F270E0F8A3E0F583888212BF
:102F40001DA7D0F0D083D082D0E0FDD0E0FCD0E04F
:102F5000FBD0E0FAD0E0F9D0E0F8D0D0D0E032C039
:102F6000E0C0D0E8C0E0E9C0E0EAC0E0EBC0E0ECDF
:102F7000C0E0EDC0E0C082C083C0F090F272E070AB
:102F800002A3E0600E90F272E0F8A3E0F58388827D
:102F9000121DA7D0F0D083D082D0E0FDD0E0FCD0CD
:102FA000E0FBD0E0FAD0E0F9D0E0F8D0D0D0E032C9
:102FB000C0E0C0D0E8C0E0E9C0E0EAC0E0EBC0E0BB
:102FC000ECC0E0EDC0E0C082C083C0F090F274E0DD
:102FD0007002A3E0600E90F274E0F8A3E0F583883D
:102FE00082121DA780AD74F8121DA9A825E8121F32
:102FF00064000300FE2F0135300464304430E535B1
:10300000FA7017752976752AF2752B00752C0875DC
:103010002D007535027F01021E0974026A70F69058
:10302000F27AE0A2E050EE90F276E06004D2A48062
:10303000E4C2A480E0E535FA701D743065277002A3
:10304000E528600575350480CC75297E752AF275F2
:103050002B00752C3080B874026A70B9740790F236
:10306000AEF080B1E535FA700C740865277002E5A2
:103070002870D1808E74026A709B90F27AE0FBF423
:10308000FCE5805CC0E090F276E05BFAD0E04AF5C7
:103090008090F27BE0FDF4FEE5905EC0E090F27778
:1030A000E05DFAD0E04AF59090F27CE0FFF455A0A4
:1030B000C0E090F278E05FFAD0E04AF5A0EC55F37A
:1030C000F5F3EB45FDF5FDEE55F4F5F4ED45FEF5B4
:1030D000FE741F5FFBA2E0E492E0C0E074185B1393
:1030E00013543FFAD0E04AF455F5F5F5EB45FFF5FA
:1030F000FF023015C082C083A825E8121F2E0301ED
:10310000753106311A31752900752A00752B007545
:103110002C00752D00753501805E79217A007B01C8
:1031200089298A2A8B2B752C048A2DE580121C4B49
:10313000E590C0E0A929AA2AAB2BE9240109EA34C9
:1031400000FAD0E0121C4BE5A0C0E0A929AA2AABE6
:103150002BE924020909EA3400FAD0E0121C4BA939
:1031600029AA2AAB2BE92403090909EA3400FAE465
:10317000121C4B80A0753504D083D08222E53570B7
:1031800003122B942274F7121DA9E535FA7036E567
:10319000257002E5266015AC27AD28ECF8EDF97A2C
:1031A000057B00121CE6EA7001EB6006753504022F
:1031B00032A5752950752AF1752B008C2C8D2D7533
:1031C00035020232A574026A60030232A57A00A8B1
:1031D00025E8A2E0505990F150E0FAF4FD90F15248
:1031E000E05AFEFBF45AFC90F151E05AC0E0E5F3DE
:1031F0005DFAD0E04AF5F3E5FD5D4EF5FD90F15442
:10320000E0FEEB5EC0E0E5805DFAD0E04AF580903C
:10321000F153E05CC0E0E58F5DFAD0E04AF58FEC59
:10322000600BEE600543F720800353F7DF7A01A8B7
:1032300025E85402606FEA75F005A42450F8E5F023
:1032400034F1F988828983E0FAF4FDA3A3E05AFE01
:10325000FBF45AFC88828983A3E05AC0E0E5F45D60
:10326000FAD0E04AF5F4E5FE5D4EF5FE88828983EA
:10327000A3A3A3A3E0FEEB5EC0E0E5905DFAD0E07F
:103280004AF59088828983A3A3A3E05CC0E0E5F6B9
:103290005DFAD0E04AF5F6EC600BEE600543F740CE
:1032A000800353F7BF7F02021E0974F5121DA9A8FF
:1032B00025A926E87001E9700675350402336575A5
:1032C0000A00752950752AF1752B00E8A2E0502BF1
:1032D000E5FDFBF4FAE5F390F150F0E5FD90F151D6
:1032E000F0E58F5A90F152F0E5805B90F153F0E5F4
:1032F000F7A2E55003E04AF0750A01E85402604A7B
:10330000E5FEFBF4FA850A087509007402780812D4
:103310001D3FE5082450F8E50934F1F9E5F4888209
:103320008983F0E5FEA3F0E5F65A88828983A3A39A
:10333000F0E82403F582E93400F583E5905BF0E5DD
:10334000F7A2E65003E04AF0050A7401250AF508E1
:10335000E43400F50974027808121D3F85082C85B5
:10336000092D7535017F04021E0974F7121DA9533A
:10337000F3FBD28243FD04122B4474E055FC44124B
:10338000F5FC75FA007C807D077AF17BF579721285
:1033900073F1786F7672127417787076C50876F2CA
:1033A000740190F2B3F0E490F2B4F090F2B2F090C5
:1033B000F2B6F090F2B7F090F2B8F090F2B9F07483
:1033C0000490F2C2F090F2C37428F0A374DEF053BC
:1033D000F4FBC29243FE0490F37F7402121F0512A5
:1033E0002CDF7402121D6853F4FD53FEFD43F602F8
:1033F00090F37F7402121F057900122D7F74021260
:103400001D688551088552097808121FC304000001
:103410001102115135071109115135201121114B9C
:1034200034001203124B34080025114B3450115153
:103430003575114B3430124B3450124B340025513A
:103440003520253E36502551352C37747890F2B50D
:10345000F074FF90F2B1F090F2BE746AF0A3744C75
:10346000F090F2BC7455F0A3744DF090F2BA749DD4
:10347000F0A37449F0C3E552941290F2C04008746E
:10348000EEF0A3745180067463F0A37448F0C28216
:103490007420655170047425655260117EC8A28540
:1034A000500B7A057B00122EA51EEE70F1C2F97545
:1034B000F936A2F950FCE5F9D282C2827420655136
:1034C00070047425655260117EC8A285500B7A0580
:1034D0007B00122EA51EEE70F1C2F975F93BA2F920
:1034E00050FCE5F9D282C2827420655170047425C3
:1034F000655260117EC8A285500B7A057B00122EA2
:10350000A51EEE70F1C2F975F93AA2F950FCE5F981
:10351000D282C28274206551700474256552601194
:103520007EC8A285500B7A057B00122EA51EEE7078
:10353000F1C2F975F93DA2F950FCE5F9FAD28274AD
:10354000F05A70CE740690F2AFF090F2B0F0023EF6
:1035500088740C90F2B5F074FF90F2B1F090F2C064
:103560007422F0A37442F090F2BE74C1F0A37445CB
:10357000F090F2BC74A5F0A37446F090F2BA74F621
:10358000F0A37442F0C28274206551700474256502
:103590005260117EC8A285500B7A057B00122EA5C1
:1035A0001EEE70F1C2F975F936A2F950FCE5F9D2B8
:1035B00082C2827420655170047425655260117E48
:1035C000C8A285500B7A057B00122EA51EEE70F165
:1035D000C2F975F93BA2F950FCE5F9D282C28274B6
:1035E00020655170047425655260117EC8A2855013
:1035F0000B7A057B00122EA51EEE70F1C2F975F94B
:103600003AA2F950FCE5F9D282C282742065517069
:10361000047425655260117EC8A285500B7A057B23
:1036200000122EA51EEE70F1C2F975F93DA2F950F7
:10363000FCE5F9FAD28274F05A70CE023544E49077
:10364000F2B5F0747F90F2B1F090F2C0745AF0A32A
:103650007452F090F2BE74FDF0A37454F090F2BC7A
:103660007489F0A37455F090F2BA74F0F0A3745218
:10367000F0C2827420655170047425655260117E19
:10368000C8A285500B7A057B00122EA51EEE70F1A4
:10369000C2F975F945A2F950FCE5F9D282C28274EB
:1036A00020655170047425655260117EC8A2855052
:1036B0000B7A057B00122EA51EEE70F1C2F975F98A
:1036C00048A2F950FCE5F9D282C28274206551709B
:1036D000047425655260117EC8A285500B7A057B63
:1036E00000122EA51EEE70F1C2F975F947A2F9502D
:1036F000FCE5F9D282C2827420655170047425659C
:103700005260117EC8A285500B7A057B00122EA54F
:103710001EEE70F1C2F975F900A2F950FCE5F9FA54
:10372000D28274835A648070CC023544123B9EE48A
:1037300002354AC082C08390F2AFE0121F2E01040E
:1037400063375B37603756374C375137123E8D80C1
:1037500012123F7E800D123B9E800812376B800351
:10376000123A208001F0D083D0822274F7121DA972
:10377000127260786FE6F91277A190F2C574E8F0E2
:10378000A374F4F090F2C77407F0A3E4F090F2C9C8
:10379000F0A3F090F2CBF0FBEBF890F2C5E028FA42
:1037A000A3E034008A82F583E4F00BEBC394074076
:1037B000E71274171271DE90F2C0E0F8A3E0F5830F
:1037C0008882121DA78551088552097808121FC3E7
:1037D00004000011021102380711081102382011EB
:1037E0002111023800120312023805002511023897
:1037F00075110238301202380025023820255D3854
:103800005D3853F4BFC29643FE4090F381740212B8
:103810001F05122CDF7402121D6853F47F53FE7FC4
:1038200043F68090F3817402121F05122D2A740250
:10383000121D6890F3817402121F0590F2BAE0FA2B
:10384000A3E0FB122BE47402121D68C2EB90F3811B
:103850007402121F05122C907402121D6890F37FDF
:103860007402121F0590F2BAE0FAA3E0FB122BE4F7
:103870007402121D6890F37F7402121F05122D2A24
:103880007402121D6890F37F7402121F05122C90AF
:103890007402121D68740490F2AFF0740190F2B0DB
:1038A000F01272908551088552097808121FC304DE
:1038B00000001102116F39071108116F3920112111
:1038C00011E53800120312E53806002511E53875B8
:1038D00011E5383012E5385012E53800256F3920EF
:1038E00025C5391D3AC2827420655170047425655E
:1038F0005260117EC8A285500B7A057B00122EA55E
:103900001EEE70F1C2F975F93AA2F950FCE5F9D250
:103910008290F2B8E0C282602B742065517004740A
:1039200025655260117EC8A285500B7A057B001276
:103930002EA51EEE70F1C2F975F938A2F9500302F6
:103940003A1980F77420655170047425655260112E
:103950007EC8A285500B7A057B00122EA51EEE7044
:10396000F1C2F975F934A2F95003023A1980F7C28D
:10397000827420655170047425655260117EC8A25E
:1039800085500B7A057B00122EA51EEE70F1C2F950
:1039900075F93AA2F950FCE5F9D282C28274206529
:1039A0005170047425655260117EC8A285500B7A4F
:1039B000057B00122EA51EEE70F1C2F975F934A236
:1039C000F9405680FAC282742065517004742565EE
:1039D0005260117EC8A285500B7A057B00122EA57D
:1039E0001EEE70F1C2F975F947A2F950FCE5F9D263
:1039F00082C2827420655170047425655260117E04
:103A0000C8A285500B7A057B00122EA51EEE70F120
:103A1000C2F975F942A2F950FCE5F9D282023E885A
:103A200074F7121DA9786FE6F91277A190F2C574A8
:103A3000E8F0A374F4F090F2C77407F0A3E4F090F8
:103A4000F2C9F0A3F090F2CBF0FBEBF890F2C5E0F6
:103A500028FAA3E034008A82F583E4F00BEBC394E8
:103A60000740E790F2C4E090F138F090F2C3E090A4
:103A7000F139F08551088552097808121FC30300F7
:103A800000110211103B20112111BA3A0012031249
:103A9000BA3A09000711103B0911103B2511BA3A37
:103AA0005011103B7511BA3A5012BA3A0025103B2A
:103AB00020253A3B5025103B663BC282742065515D
:103AC00070047425655260117EC8A285500B7A057A
:103AD0007B00122EA51EEE70F1C2F975F93BA2F91A
:103AE00050FCE5F9D282C2827420655170047425BD
:103AF000655260117EC8A285500B7A057B00122E9C
:103B0000A51EEE70F1C2F975F93AA2F9405480FA97
:103B1000C2827420655170047425655260117EC89C
:103B2000A285500B7A057B00122EA51EEE70F1C205
:103B3000F975F93BA2F9402A80FAC28274206551D6
:103B400070047425655260117EC8A285500B7A05F9
:103B50007B00122EA51EEE70F1C2F975F948A2F98C
:103B600050FCE5F9D28290F2C0E0F8A3E0F583883A
:103B700082121DA790F37F7402121F0590F2BCE021
:103B8000FAA3E0FB122BE47402121D68C2EB740569
:103B900090F2AFF0740290F2B0F0FF021E0974F7D9
:103BA000121DA974FF121D52E4851482851583F03D
:103BB00090F2B0E06402702A80077A087B00122E2F
:103BC000CA78708682088683A3A3A3A3A3A3E06018
:103BD00011851482851583E0FA74012AF074FF6A56
:103BE00070D890F37F7402121F05122CDF7402123A
:103BF0001D6890F37F7402121F057A007B00122B60
:103C0000E47402121D6890F3817402121F05122CD5
:103C1000DF7402121D6890F3817402121F057A008E
:103C20007B00122BE47402121D688551088552092D
:103C30007808121FC30400001102112C3D0711095E
:103C4000112C3D20112111733C00120312733C080A
:103C5000002511733C50112C3D7511733C301273CB
:103C60003C5012733C00252C3D2025E43D50252C72
:103C70003D443EC2827420655170047425655260D3
:103C8000117EC8A285500B7A057B00122EA51EEE70
:103C900070F1C2F975F936A2F950FCE5F9D282C289
:103CA000827420655170047425655260117EC8A22B
:103CB00085500B7A057B00122EA51EEE70F1C2F91D
:103CC00075F93AA2F950FCE5F9D282C282742065F6
:103CD0005170047425655260117EC8A285500B7A1C
:103CE000057B00122EA51EEE70F1C2F975F93BA2FC
:103CF000F950FCE5F9D282C28274206551700474D7
:103D000025655260117EC8A285500B7A057B001292
:103D10002EA51EEE70F1C2F975F93DA2F950FCE531
:103D2000F9FAD28274F05A70CE023E44C2827420F4
:103D3000655170047425655260117EC8A285500BD0
:103D40007A057B00122EA51EEE70F1C2F975F936C8
:103D5000A2F950FCE5F9D282C28274206551700448
:103D60007425655260117EC8A285500B7A057B00D0
:103D7000122EA51EEE70F1C2F975F93DA2F950FCA4
:103D8000E5F9FAD28274F05A70CEC282742065517D
:103D900070047425655260117EC8A285500B7A05A7
:103DA0007B00122EA51EEE70F1C2F975F93AA2F948
:103DB00050FCE5F9D282C2827420655170047425EA
:103DC000655260117EC8A285500B7A057B00122EC9
:103DD000A51EEE70F1C2F975F93BA2F950FCE5F9A8
:103DE000D2828060C282742065517004742565524D
:103DF00060117EC8A285500B7A057B00122EA51E8D
:103E0000EE70F1C2F975F945A2F950FCE5F9D282DC
:103E1000C2827420655170047425655260117EC899
:103E2000A285500B7A057B00122EA51EEE70F1C202
:103E3000F975F900A2F950FCE5F9FAD28274835AB7
:103E4000648070CC539AEF12727C90F2B0E06401FF
:103E5000702590DE0EE0FA90F2C2E090DE0EF07473
:103E60000890DE11F0E0A2E340FB7408F0E0A2E36A
:103E700040FBEA90DE0EF0740690F2AFF07403900F
:103E8000F2B0F07401121D687F02021E0974F31271
:103E90001DA974FC121D5290F2B6E0605F122E92C2
:103EA0008A088B09786FE6F912745DC3EA9404EB13
:103EB0009400403C90F37BC082851482851583ACCE
:103EC00082AD837583F3D0827404121CB890F2B66D
:103ED000E0C0E07403121D9DD0E0F07C047D0085FD
:103EE0001482851583AA82AB83786FE6F9127482F7
:103EF000E490F2B6F0AA08AB09122E9F90DE0EE015
:103F0000F50A90F2C2E090DE0EF090DE11E0A2E041
:103F1000405C122E928A088B09786FE6F912747849
:103F20008A0C8B0DAE0CAF0DAA08AB09122E9FEEBA
:103F30007001EF602BC3EE9440EF940040087E4088
:103F40007F0074018001E490F2CCF0EEFCEFFD9074
:103F5000F2C3E0FAA3E0FB786FE6F91276BC8008C2
:103F600090F2CCE06008E4F0740190DE11F0E50A14
:103F700090DE0EF07404121D687F06021E0974F8AC
:103F8000121DA990DE0EE0FE90F2C2E090DE0EF06F
:103F9000539AFD78708682088683A3A3A3A3A3A364
:103FA000E060030240A690DE14E0A2E0400302407D
:103FB000A690DE16E0FC90F2C7E0FAA3E0FB1886BC
:103FC00082088683E02AA3E03B90F13AF0188682CB
:103FD000088683E02A90F13BF0EC90F13DF075D635
:103FE0000475D7048C82AA82188682088683A3A3CC
:103FF000A3A3E02AF0A3E03400F0188682088683A9
:10400000A3A3E02AF0A3E03400F0E5D6A2E240FA50
:1040100090F2B4E07020188682088683E0F8A3E06E
:10402000F5838882A3A3A3A3A3A3A3E090F2B1F096
:10403000740190F2B4F0E490DE14F0787086820897
:104040008683A3A3A3A3C082C08390F2B1E0F890BB
:10405000F2B3E028F8E43400F990F2B2E0FA3395D4
:10406000E0FBEA28F8EB39F9D083D082E0687003EE
:10407000A3E069703178708682088683A3A37407F1
:10408000F0A3E4F07401188682088683A3A3A3A397
:10409000A3A3F0EE90DE0EF090F2BEE0F8A3E0F500
:1040A000838882121DA7EE90DE0EF0439A027F01F4
:1040B000021E09C082C083123B9E75A90075B9001B
:1040C000122B6D53F3FB53FDFB438F04E490F2AFCF
:1040D000F090F2B002376574F7121DA974FD121D3D
:1040E00052EAFEEBFF786FE6F912745D8A088B09DD
:1040F00074FD2508F874FF3509F9C3E89EE99F505F
:104100003790F2B7E0704D90F378C08285148285C5
:104110001583AC82AD837583F3D0827403121CB80F
:104120007C03FD851482851583AA82AB83786FE6B4
:10413000F912748274018018EEFCEFFD78708682AB
:10414000088683E0FAA3E0FB786FE6F912753EE497
:1041500090F2B7F090F2B3E0F4FA90F2B4E05AF0D3
:1041600078708682088683A3A3A3A3E4F0A3F01843
:104170008682088683A3A37407F0A3E4F074030285
:104180003E85C082C083752C00752D00A825E812DD
:104190001F2E0003DB419E41B241CA41D441752C20
:1041A00001752D007529B0752AF2752B0075350142
:1041B000802C740190F2AFF0A823E8540190F2B87B
:1041C000F0E8540290F2B9F080E3740290F2AFF09C
:1041D000A82380ED740390F2AF80EC7535040237AC
:1041E00066C082C083E990F2B602376574F8121D8A
:1041F000A9E9FFC28274206551700474256552607C
:10420000117EC8A285500B7A057B00122EA51EEEEA
:1042100070F1C2F98FF9A2F950FCE5F9F9D28202E6
:1042200040AEC082C08374FF121D527C017D0085A8
:104230001482851583AA82AB8379881247DCE05407
:10424000036401700474018001E490F2B3F0701211
:10425000740190F2B4F0FC7D007AB17BF2798612A1
:1042600047DC7C017D00851482851583AA82AB839F
:1042700079831247DCE054F07583F27582B5FAE079
:104280004A851482851583F07C017D00AA82AB8368
:1042900079031247DC90F2AFE06401704F7C017D3E
:1042A00000851482851583AA82AB8379871247DC47
:1042B000E0A2E25004D2F08002C2F0A2F0E492E068
:1042C000C33390F2B2F07406851482851583F07CB6
:1042D000017D00AA82AB8379001247DC7440F07C38
:1042E000017D00AA82AB8379021247DC7401121DA2
:1042F00068D083D0822274F7121DA974FE121D5259
:104300007401121D9DE4F090F37F7402121F0512D8
:104310002D2A7402121D6890F3817402121F051277
:104320002D2A7402121D6878708682088683A3A3E2
:10433000A3A3E07002A3E07021122E928A088B09D9
:1043400078708682088683E02403FAA3E03400FBB9
:104350001272B5AA08AB09122E9F7C017D0085144C
:1043600082851583AA82AB8379BB1247DCE9FEE024
:1043700070030243FD90F2B4E0707B7870E6240293
:10438000FA08E63400FB8A828B83E0F508A3E0F5A7
:104390000974012508F8E43509F98A828B83E8F06D
:1043A000A3E9F07C017D0078708682088683E02591
:1043B00008FAA3E03509FB79FF1247DC78708682A2
:1043C000088683A3A3A3A37401F0A3E4F018868254
:1043D000088683E0F8A3E0F5838882A3A3A3A3A3C0
:1043E000A3A3E090F2B1F0740190F2B4F0851482CE
:1043F000851583E014F074F05E6460700A74011235
:104400001D9D7401F0800F851482851583E0700670
:1044100090F2B1E070E77401121D9DE0606579369D
:104420001241EC90F2B3E0F4FA90F2B4E05AF07872
:10443000708682088683A3A3A3A3E4F0A3F0188662
:1044400082088683A3A37407F0A3E4F090F37F743B
:1044500002121F05122D2A7402121D6890F3817436
:1044600002121F05122D2A7402121D68793A124198
:10447000EC793D1241ECE954F070F679341241ECDC
:104480000245B790F2B1E0F890F2B3E028F8E434D6
:1044900000F990F2B2E0FA3395E0FBEA28FEEB393E
:1044A000FF78708682088683A3A3A3A3E0F8A3E025
:1044B000F9851482851583E0FCEEC398FAEF99FB29
:1044C000C3EC9AE49B5003E08003EEC398C0E07411
:1044D00001121D9DD0E0F0E5D6A2E340FAC282753C
:1044E00008C8A285500D7A057B00122EA51508E597
:1044F0000870EFC2F975F9FFA2F950FC85148285A6
:104500001583E0F978708682088683A3A3E0FAA376
:10451000E0FB188682088683E02AFAA3E03BFB12C0
:10452000723BD2827870E62404FA08E63400FB85F8
:104530001482851583E0F88A828B83E028F0A3E05B
:104540003400F0851482851583E0FC78708682083B
:104550008683A3A3E02CF0A3E03400F08A828B834F
:10456000E06E7003A3E06F704E79341241EC740476
:104570002EFAE43FFB78708682088683E0F8A3E099
:10458000F5838882E4F078708682088683E0F8A359
:10459000E0F5838882A3EAF078708682088683E05B
:1045A000F8A3E0F5838882A3A3EBF074032A0A0A38
:1045B0000AE43BFB1240D77402121D687F02021E00
:1045C00009C082C08374FF121D52787086820886EB
:1045D00083A3A3A3A3C3E09441A3E0940040557434
:1045E00002851482851583F07C017D00AA82AB834D
:1045F00079001247DC7C407D0078708682088683D3
:10460000E02407FAA3E03400FB797F1247DC7870DE
:104610008682088683A3A3A3A3E024C0F0A3E0348A
:10462000FFF0188682088683A3A3E02440F0A3E06D
:10463000340080487406851482851583F07C017DE2
:1046400000AA82AB8379001247DC787086820886E4
:1046500083A3A3A3A3E0FCA3E0FD188682088683BE
:10466000E02407FAA3E03400FB797F1247DC78707E
:104670008682088683A3A3A3A3E4F0A3F090F37F2C
:104680007402121F05122D2A7402121D6890F37F06
:104690007402121F05122C907402121D68793512D3
:1046A00041EC0242EC74F8121DA974FF121D5278FD
:1046B000708682088683A3A3A3A3E0FA704A90F3CE
:1046C0007F7402121F05122CDF7402121D687936E6
:1046D0001241EC78708682088683A3A37407F0A346
:1046E000E4F0188682088683A3A3A3A3A3A3F09073
:1046F000F2B3E0F4FA90F2B4E05AF0793D1241ECF2
:10470000E954F070F60247D290F2B5E0333354FC2E
:10471000FEC39A505990F37F7402121F05122D2A7E
:104720007402121D68EEFC7D007870868208868314
:10473000A3A3E0FAA3E0FB188682088683E02AFAA6
:10474000A3E03BFB797F1247DC7870868208868382
:10475000A3A3E02EF0A3E03400F01886820886833D
:10476000A3A3A3A3C3E09EF0A3E094008063740618
:10477000851482851583F07C017D00AA82AB837944
:10478000001247DC90F37F7402121F05122D2A7469
:1047900002121D6878708682088683A3A3A3A3E013
:1047A000FCA3E0FD188682088683A3A3E0FAA3E0B9
:1047B000FB188682088683E02AFAA3E03BFB797F18
:1047C0001247DC78708682088683A3A3A3A3E4F053
:1047D000A3F07401121D687F01021E0974F7121DF7
:1047E000A989088A828B83ECFEEDFFC2827509C815
:1047F000A285500D7A057B00122EA51509E50970DA
:10480000EFC2F974404508F5F9A2F950FCE5F9F951
:10481000E508A2E7EE50267001EF6042EEFAEFFBEA
:10482000C2F975F900A2F950FCE5F9F0A3EA24FFFA
:104830001AEB34FFFBEA7001EB602380E37001EFB9
:10484000601CEEFAEFFBC2F9E0F5F9A2F950FCA307
:10485000EA24FF1AEB34FFFBEA7001EB70E8D28226
:104860000245BC74F7121DA974FF121D527C017D14
:1048700000851482851583AA82AB8379A8124E8E97
:10488000E054606420700474018001E490F2B3F09D
:104890007026851482851583E0541C6004740180A1
:1048A00001E490F2B2F0740190F2B4F0FC7D007A71
:1048B000B17BF279AE124E8E7C017D00851482852B
:1048C0001583AA82AB83799E124E8EE05480758345
:1048D000F27582B5FAE04A851482851583F07C0171
:1048E0007D00AA82AB83791E124E8E90F2AFE064F7
:1048F0000170487C017D00851482851583AA82ABF6
:104900008379A7124E8EE0A2E0E492E0C333FA90DE
:10491000F2B2E02AF07406851482851583F07C01DA
:104920007D00AA82AB837901124E8E7440F07C0127
:104930007D00AA82AB837903124E8E90F2B9E070AB
:10494000577508017509007808121EF47402121DCB
:104950009DAC82AD8379807A907B2F124F157402C3
:10496000121D68851482E0642170287808121EF4F4
:104970007402121D9DAC82AD8379807A8F7B2F12D9
:104980004F157402121D68851482E0C394404003E1
:10499000125002E490F2B9F074010251E674F71279
:1049A0001DA974FE121D5290F37F7402121F05128E
:1049B0002D2A7402121D6890F3817402121F0512D1
:1049C0002D2A7402121D6878708682088683A3A33C
:1049D000A3A3E07002A3E07021122E928A088B0933
:1049E00078708682088683E02403FAA3E03400FB13
:1049F0001272B5AA08AB09122E9F7508017509003D
:104A00007808121EF47402121D9DAC82AD83798069
:104A10007AD77B2F124F157402121D68E9FE851498
:104A200082E07003024AC290F2B4E0707B7870E6D4
:104A30002402FA08E63400FB8A828B83E0F508A39F
:104A4000E0F50974012508F8E43509F98A828B83B9
:104A5000E8F0A3E9F07C017D007870868208868307
:104A6000E02508FAA3E03509FB79FF124E8E787035
:104A70008682088683A3A3A3A37401F0A3E4F0189D
:104A80008682088683E0F8A3E0F5838882A3A3A347
:104A9000A3A3A3A3E090F2B1F0740190F2B4F08567
:104AA0001482851583E014F074F05E6460601390E6
:104AB000F2B1E0F508851482851583E07073E5088E
:104AC000606F79361241EC90F2B3E0F4FA90F2B4F0
:104AD000E05AF078708682088683A3A3A3A3E4F04B
:104AE000A3F0188682088683A3A37407F0A3E4F0DA
:104AF000793A1241EC90F37F7402121F05122D2AAD
:104B00007402121D6890F3817402121F05122D2A7F
:104B10007402121D68793D1241ECE954F070F69070
:104B2000F2B8E0600879381241EC024C65793480C3
:104B3000F690F2B3E02508F8E43400F990F2B2E020
:104B4000FA3395E0FBEA28FEEB39FF78708682089D
:104B50008683A3A3A3A3E0F8A3E0F98514828515B7
:104B600083E0FCEEC398FAEF99FBC3EC9AE49B5008
:104B700003E08003EEC398C0E07401121D9DD0E0F5
:104B8000F0E5D6A2E340FAC2827508C8A285500DAE
:104B90007A057B00122EA51508E50870EFC2F9759D
:104BA000F9FFA2F950FCE0F978708682088683A3A9
:104BB000A3E0FAA3E0FB188682088683E02AFAA322
:104BC000E03BFB12723BD2827870E62404FA08E6DE
:104BD0003400FB851482851583E0F88A828B83E09C
:104BE00028F0A3E03400F0851482851583E0FC787A
:104BF000708682088683A3A3E02CF0A3E03400F043
:104C00008A828B83E06E7003A3E06F705890F2B8D5
:104C1000E060047938800279341241EC74042EFA91
:104C2000E43FFB78708682088683E0F8A3E0F58392
:104C30008882E4F078708682088683E0F8A3E0F545
:104C4000838882A3EAF078708682088683E0F8A3DE
:104C5000E0F5838882A3A3EBF074032A0A0A0AE42E
:104C60003BFB1240D774020251E6C082C08374FF3E
:104C7000121D5278708682088683A3A3A3A3C3E083
:104C80009481A3E0940040557402851482851583B5
:104C9000F07C017D00AA82AB837901124E8E7C806C
:104CA0007D0078708682088683E02407FAA3E034CA
:104CB00000FB797F124E8E78708682088683A3A3CC
:104CC000A3A3E02480F0A3E034FFF01886820886D6
:104CD00083A3A3E02480F0A3E03400804874068519
:104CE0001482851583F07C017D00AA82AB83790153
:104CF000124E8E78708682088683A3A3A3A3E0FC5D
:104D0000A3E0FD188682088683E02407FAA3E03436
:104D100000FB797F124E8E78708682088683A3A36B
:104D2000A3A3E4F0A3F090F37F7402121F05122DE9
:104D30002A7402121D6890F37F7402121F05122C50
:104D4000907402121D6879351241EC7401121D68CD
:104D5000D083D0822274F8121DA974FF121D5278DC
:104D6000708682088683A3A3A3A3E0FA704F90F312
:104D70007F7402121F05122CDF7402121D6879362F
:104D80001241EC78708682088683A3A37407F0A38F
:104D9000E4F0188682088683A3A3A3A3A3A3F090BC
:104DA000F2B3E0F4FA90F2B4E05AF0793A1241EC3E
:104DB00079361241ECE954F070F1024E8490F2B56C
:104DC000E004FEC39A505990F37F7402121F05123B
:104DD0002D2A7402121D68EEFC7D00787086820810
:104DE0008683A3A3E0FAA3E0FB188682088683E00B
:104DF0002AFAA3E03BFB797F124E8E7870868208F8
:104E00008683A3A3E02EF0A3E03400F01886820886
:104E10008683A3A3A3A3C3E09EF0A3E094008063D2
:104E20007406851482851583F07C017D00AA82AB0F
:104E3000837901124E8E90F37F7402121F05122D9A
:104E40002A7402121D6878708682088683A3A3A341
:104E5000A3E0FCA3E0FD188682088683A3A3E0FA02
:104E6000A3E0FB188682088683E02AFAA3E03BFBD6
:104E7000797F124E8E78708682088683A3A3A3A3BF
:104E8000E4F0A3F07401121D687F01021E0974F79B
:104E9000121DA989088A828B83ECFEEDFFC2827500
:104EA00009C8A285500D7A057B00122EA51509E5CB
:104EB0000970EFC2F974404508F5F9A2F950FCE514
:104EC000F9F9E508A2E7EE50267001EF6042EEFA2C
:104ED000EFFBC2F975F900A2F950FCE5F9F0A3EA7D
:104EE00024FF1AEB34FFFBEA7001EB602380E370D0
:104EF00001EF601CEEFAEFFBC2F9E0F5F9A2F95000
:104F0000FCA3EA24FF1AEB34FFFBEA7001EB70E824
:104F1000D2820251E974F5121DA974FE121D528944
:104F20000AECFEEDFF740D121D9DE0F508A3E0F5FF
:104F3000097401121D9DEBF0EA851482851583F03A
:104F4000C282750BC8A285500D7A057B00122EA572
:104F5000150BE50B70EF7401121D9DE0C2F9601F87
:104F6000E0450A4440F5F9A2F950FCE5F9F9C2F927
:104F7000851482851583E0F5F9A2F9401680FA853B
:104F80001482851583E0450A4440F5F9A2F950FCE6
:104F9000E5F9F97480650A7031E5087002E5096089
:104FA00055AA08AB09C2F975F900A2F950FCE5F958
:104FB0008E828F83F0A3AE82AF83EA24FF1AEB3494
:104FC000FFFBEA7001EB602E80DBE5087002E5096B
:104FD0006024AA08AB09C2F98E828F83E0F5F9A399
:104FE000AE82AF83A2F950FCEA24FF1AEB34FFFB38
:104FF000EA7001EB70E0D2827402121D687F040235
:105000001E0974F7121DA974F9121D52E485148249
:10501000851583F0750801F5097808121EF47402ED
:10502000121D9DAC82AD8379007A257B2F124F151E
:105030007402121D687808121EF47404121D9DACCF
:1050400082AD8379807A157B2F124F157402121D61
:1050500068E02402851482851583F07808121EF416
:105060007402121D9DAC82AD8379007A157B2F12DC
:105070004F157402121D6879331241EC7808121E24
:10508000F47403121D9DAC82AD8379807A737B2FFB
:10509000124F157402121D68E0644170DF78081227
:1050A0001EF47406121D9DAC82AD8379807A257B37
:1050B0002F124F157402121D687808121EF474071F
:1050C000121D9DAC82AD8379807A237B2F124F1500
:1050D0007402121D687808121EF47408121D9DAC2B
:1050E00082AD8379807A187B2F124F157402121DBE
:1050F00068E4851482851583F07808121EF4740222
:10510000121D9DAC82AD8379007A257B2F124F153D
:105110007402121D687402121D9DE08514828515AB
:1051200083F07808121EF47402121D9DAC82AD83C8
:1051300079007A157B2F124F157402121D6879338E
:105140001241EC7808121EF47403121D9DAC82AD5E
:105150008379807A737B2F124F157402121D68E0D9
:10516000644170DF7808121EF47405121D9DAC8234
:10517000AD8379807A257B2F124F157402121D683A
:10518000E0C0E07404121D9DE0FAD0E0C39A5054D0
:105190007808121EF47406121D9DAC82AD8379004E
:1051A0007A257B2F124F157402121D687808121E83
:1051B000F47407121D9DAC82AD8379007A237B2F96
:1051C000124F157402121D687808121EF47408122A
:1051D0001D9DAC82AD8379007A187B2F124F157418
:1051E00002121D687407121D687F02021E0974F8FE
:1051F000121DA974FE121D527C017D00EC121D9D32
:10520000AA82AB83799E124E8E1248637C017D0088
:10521000851482851583AA82AB83799D124E8EE018
:1052200054807583F27582B5FAE04A85148285153B
:1052300083F07C017D00AA82AB83791D124E8E7CA7
:10524000017D00EC121D9DE0FA7B00791E124E8E4E
:105250007402121D687F01021E09C082C083C282CF
:10526000C2F975F9E3A2F950FCE5F9C2F975F92A1A
:10527000A2F950FCD282C282C2F975F9A6A2F950F5
:10528000FCE5F9C2F975F900A2F950FCE5F9D28202
:10529000D2E3FAC282C2F975F9E6A2F950FCE5F947
:1052A000C2F98AF9A2F950FCD28290F2AFE064010F
:1052B0007003E48032E064027031C282C2F975F991
:1052C0008CA2F950FCE5F9C2F975F900A2F950FC7D
:1052D000E5F9D282A2E65004D2F08002C2F0A2F038
:1052E000E492E0C333F40490F2B2F0D083D082228F
:1052F00074F7121DA974FF121D5290F37F740212ED
:105300001F05122D2A7402121D68122E928A088B14
:105310000978708682088683E02403FAA3E03400CB
:10532000FB1272B5AA08AB09122E9FC282C2F97590
:10533000F9BEA2F950FCE5F9C2F975F900A2F950DD
:10534000FCE5F9851482851583F0D282E0700302B2
:1053500054147870E62402FA08E63400FB8A828B43
:1053600083E0FCA3E0FD74012CF8E43DF98A828B14
:1053700083E8F0A3E9F078708682088683E02CF851
:10538000A3E03DF988828983C282C2F975F930A20F
:10539000F950FCE5F9C2F975F900A2F950FCE5F9FC
:1053A000F0D28278708682088683A3A3A3A37401B7
:1053B000F0A3E4F0188682088683E0F8A3E0F58382
:1053C0008882A3A3A3A3A3A3A3E0FA90F2B1F085DC
:1053D0001482851583E014F0E07003EA7036C2820F
:1053E000C2F975F990A2F950FCE5F9C2F975F90016
:1053F000A2F950FCE5F9D282A2E65068C282C2F955
:1054000075F9D0A2F950FCE5F9C2F975F900A2F9D5
:1054100050FCD28279451241EC78708682088683EE
:10542000A3A3A3A3E4F0A3F0188682088683A3A312
:105430007407F0A3E4F079471241EC79471241EC8C
:1054400090F37F7402121F05122D2A7402121D6838
:1054500079001241ECE95483648070F4794212417E
:10546000EC0254F3E5D6A2E340FAC282C2F975F920
:1054700030A2F950FCE0F978708682088683A3A3F5
:10548000E0FAA3E0FB188682088683E02AFAA3E00C
:105490003BFB12723BD28279471241EC79471241B1
:1054A000EC851482851583E0F8740528FAE434004D
:1054B000FB78708682088683E0F8A3E0F583888213
:1054C000E4F078708682088683E0F8A3E0F58388AC
:1054D00082A3EAF078708682088683E0F8A3E0F57C
:1054E000838882A3A3EBF074032A0A0A0AE43BFB35
:1054F0001240D77401121D687F02021E09C082C0CB
:10550000837870E62404FA08E63400FB8A828B83F1
:10551000E0FCA3E0FD188682088683E02407F8A358
:10552000E03400F988828983C282C2F975F93AA20F
:10553000F950FCE5F9EC7001ED601CECF8EDF9C2F6
:10554000F9E0F5F9A2F950FCA3E824FF18E934FFCB
:10555000F9E87001E970E8D2828A828B83E4F0A3D3
:10556000F090F37F7402121F05122D2A7402121D8F
:105570006890F37F7402121F05122C907402121DA2
:105580006879431241EC0252EBC082C08378708686
:1055900082088683A3A3A3A3E07002A3E0704190D6
:1055A000F37F7402121F05122CDF7402121D68793A
:1055B000451241EC78708682088683A3A37407F0B5
:1055C000A3E4F0188682088683A3A3A3A3A3A3F071
:1055D00090F2B4F079001241ECE95483648070F4E5
:1055E0000252EBE5357012752983752AF3752B008D
:1055F000752C01752D0075350122C082C083E535FB
:105600007014E5277002E52860057535048007A849
:1056100025E890F384F0D083D08222EAFC7001EB7D
:10562000700379FF2274056C700379062274206C74
:10563000602474216C601F74256C601A74756C6032
:105640001574F05CFC600F74506C600A74306A7002
:105650000374126B700379012274106C600A743049
:105660006C600574406C70BA790022C082C083906F
:10567000F383E064057005125A088003125729D09D
:1056800083D08222C082C08390F383E064057005DA
:10569000125AC580031257DB80E5C082C08390F3A5
:1056A00083E064057005125B34800312581C80CFC0
:1056B000C082C083D2817A027B00122ECA122B4490
:1056C000122BA053F3FBD28243FD0474E055FC443B
:1056D00010F5FC75FA00C2817A027B00122ECA1204
:1056E00074171271DEE490F35AF0740290F2CFF066
:1056F0007401025827C082C083122B6D122BC15334
:10570000F3FB53FDFB438F04D2817A027B00122E00
:10571000CAC2817A027B00122ECAE490F35AF07456
:105720000490F2CFF0E4025827C082C083E535FA36
:10573000701CA825E890F2CEF0752950752AF175F5
:105740002B0085272C85282D7535020257D9740228
:105750006A60030257D990F2CEE06401700890F1BC
:1057600050E090F2CFF0C282D291A28540FCA28597
:1057700050FCC291C2F975F900A2F950FCA2854013
:10578000FCC2F9A827E82402F5F9A2F950FCA28589
:1057900050FCC2F9A825E8F5F9A2F950FCC2F9A815
:1057A00027E8F5F9A2F950FC7582507583F1700273
:1057B000E528601D7827E624FFF608E634FFF6C2E8
:1057C000F9E0F5F9A2F950FCA3E5277002E528708D
:1057D000E37527FF7528FFD2828050C082C0839076
:1057E000F2CFE07035E490F35BF090F35CF07C98DE
:1057F0007D087AE87BF479721273F1C282D291A2A9
:105800008540FCA28550FCC291C2F975F901A2F94C
:1058100050FCD282740290F2CDF0800FC082C0831F
:10582000740190F35A800390F2CDF0D083D082229D
:1058300074F3121DA974FD121D52C2AF90F35AE009
:1058400064017029E4F090F2CFE07021C282D2911D
:10585000A28540FCA28550FCC291C2F975F902A252
:10586000F950FCD282740390F2CD0259EA90F2CD45
:10587000E0640260030259EB90DE0EE0F50A740367
:10588000F090DE11E0A2E04054122E928A088B09BB
:1058900079721274788A0C8B0DAE0CAF0DAA08AB1E
:1058A00009122E9FEE7001EF6025C3EE9440EF9435
:1058B0000040087E407F0074018001E490F35EF0B8
:1058C000EEFCEFFD7A267BDE79721276BC800890C2
:1058D000F35EE06008E4F0740190DE11F0E50A90F8
:1058E000DE0EF07B0090F35BE07044C282D291A2A6
:1058F0008540FCA28550FCC291C2F975F903A2F95A
:1059000050FCA28540FCC2F975F900A2F950FCE5F3
:10591000F990F35CF0C39408E0407BF990F385E0E4
:10592000FAA3E0FB12723BD282740190F35BF07930
:105930007212745D90F35CE0F8C3EA98EB94005047
:10594000030259EBE8FE797212745D8A088B0974C0
:10595000FD2508F874FF3509F9C3E89EE994005065
:105960006F90F35DE0707F90F387C082851482852D
:105970001583AC82AD837583F3D0827403121CB897
:105980007C03FD851482851583AA82AB837972120C
:1059900074827401804C6034E014F0C2F975F9002F
:1059A000A2F950FCE5F9C0E0EBF890F385E028FAA5
:1059B000A3E034008A82F583D0E0F00B90F35CE042
:1059C00070D674FFF0D282EBF0025929D282801B8C
:1059D000EEFC7D0090F385E0FAA3E0FB797212758E
:1059E0003EE490F35DF0E490F35BF0D2AF74031209
:1059F0001D687F06021E09C082C083E490F2D0F0C9
:105A000012336AD083D0822274F6121DA9E535FACA
:105A1000701CA825E890F2CEF0752950752AF17512
:105A20002B0085272C85282D753502025AC074025B
:105A30006A6003025AC0A825E8121F64000200B879
:105A40005A04465AC05A7582507583F1A827E8FE59
:105A5000A823E8C4540F04F509E8540F04F50AEE2E
:105A6000702C805CC2F9E0F5F9A3A2F950FCEF704C
:105A70003DAF0AEFCEC39EFEEF600E1FC2F9E0F508
:105A8000F9A3A2F950FCEF70F2D282EE6032C2822A
:105A90007508C8A285500D7A057B00122EA5150841
:105AA000E50870EFAF09EFCEC39EFEEF60C31FEFB6
:105AB00060B2E070AFA380F690F150E090F2D0F0C9
:105AC0007F03021E0974F7121DA98551088552092A
:105AD0007808121FC3040000110211115B0711089E
:105AE00011115B20112111075B001203120C5B05E1
:105AF000002511075B7511075B30120C5B00251147
:105B00005B2025165B195B125B51800D125C0580D2
:105B100008125CB58003125DB9740390F2C2F09074
:105B2000F2C37426F0A374DEF0740190F2AFF07F3C
:105B300002021E09C082C083740390F2AFF07404A5
:105B400090F2C2F090F2C37428F0A374DEF0025A0F
:105B50000374F8121DA9C2827EC8A285500B7A0573
:105B60007B00122EA51EEE70F1C2F975F9A7A2F9FD
:105B700050FCC2F975F900A2F950FCE5F9FAD2829D
:105B800074C25A4405FFC2827EC8A285500B7A05B2
:105B90007B00122EA51EEE70F1C2F975F927A2F94D
:105BA00050FCC2F98FF9A2F950FCD282C2827EC8A1
:105BB000A285500B7A057B00122EA51EEE70F1C255
:105BC000F975F9A9A2F950FCC2F975F900A2F950CA
:105BD000FCE5F9FAD28274304AFFC2827EC8A285FF
:105BE000500B7A057B00122EA51EEE70F1C2F975DE
:105BF000F929A2F950FCC2F98FF9A2F950FCD2821E
:105C00007F01021E0974F8121DA9C2827EC8A285F6
:105C1000500B7A057B00122EA51EEE70F1C2F975AD
:105C2000F9A7A2F950FCC2F975F900A2F950FCE5F8
:105C3000F9FAD28274E25A4403FFC2827EC8A28576
:105C4000500B7A057B00122EA51EEE70F1C2F9757D
:105C5000F927A2F950FCC2F98FF9A2F950FCD282BF
:105C6000C2827EC8A285500B7A057B00122EA51E2B
:105C7000EE70F1C2F975F9A9A2F950FCC2F975F9F3
:105C800000A2F950FCE5F9FAD28274304AFFC282D0
:105C90007EC8A285500B7A057B00122EA51EEE70E1
:105CA000F1C2F975F929A2F950FCC2F98FF9A2F9EC
:105CB00050FC025BFE74F8121DA9C2827EC8A28548
:105CC000500B7A057B00122EA51EEE70F1C2F975FD
:105CD000F987A2F950FCC2F975F900A2F950FCE568
:105CE000F9FAD28274FC5A4404FFC2827EC8A285AB
:105CF000500B7A057B00122EA51EEE70F1C2F975CD
:105D0000F907A2F950FCC2F98FF9A2F950FCD2822E
:105D1000C2827EC8A285500B7A057B00122EA51E7A
:105D2000EE70F1C2F975F988A2F950FCC2F975F963
:105D300000A2F950FCE5F9FAD28274044AFFC2824B
:105D40007EC8A285500B7A057B00122EA51EEE7030
:105D5000F1C2F975F908A2F950FCC2F98FF9A2F95C
:105D600050FCD282C2827EC8A285500B7A057B008D
:105D7000122EA51EEE70F1C2F975F997A2F950FC2A
:105D8000C2F975F900A2F950FCE5F9FAD282740C57
:105D90004AFFC2827EC8A285500B7A057B00122E74
:105DA000A51EEE70F1C2F975F917A2F950FCC2F9FF
:105DB0008FF9A2F950FC025BFEC082C08375F0052A
:105DC00090F2D0E0A424D4C282C2F975F920A2F9DD
:105DD00050FCC2F975F92EA2F950FCC2F9F5F9A2EE
